{
  "_format": "hh-sol-artifact-1",
  "contractName": "TokenFactory",
  "sourceName": "contracts/TokenFactory.sol",
  "abi": [
    {
      "inputs": [],
      "stateMutability": "nonpayable",
      "type": "constructor"
    },
    {
      "anonymous": false,
      "inputs": [
        {
          "indexed": false,
          "internalType": "address",
          "name": "tokenAddress",
          "type": "address"
        }
      ],
      "name": "TokenDeployed",
      "type": "event"
    },
    {
      "inputs": [
        {
          "internalType": "uint256",
          "name": "_initialSupply",
          "type": "uint256"
        },
        {
          "internalType": "string",
          "name": "_tname",
          "type": "string"
        },
        {
          "internalType": "string",
          "name": "_tiker",
          "type": "string"
        }
      ],
      "name": "createToken",
      "outputs": [
        {
          "internalType": "address",
          "name": "tokenAddress",
          "type": "address"
        }
      ],
      "stateMutability": "nonpayable",
      "type": "function"
    },
    {
      "inputs": [
        {
          "internalType": "uint256",
          "name": "",
          "type": "uint256"
        }
      ],
      "name": "list_of_tokens",
      "outputs": [
        {
          "internalType": "address",
          "name": "",
          "type": "address"
        }
      ],
      "stateMutability": "view",
      "type": "function"
    },
    {
      "inputs": [],
      "name": "tokenCount",
      "outputs": [
        {
          "internalType": "uint256",
          "name": "",
          "type": "uint256"
        }
      ],
      "stateMutability": "view",
      "type": "function"
    }
  ],
  "bytecode": "0x608060405234801561001057600080fd5b5060006001819055506130b1806100286000396000f3fe60806040523480156200001157600080fd5b5060043610620000465760003560e01c80638d24d8d4146200004b5780639f181b5e1462000081578063b1037e7814620000a3575b600080fd5b62000069600480360381019062000063919062000373565b620000d9565b604051620000789190620003ea565b60405180910390f35b6200008b62000119565b6040516200009a919062000418565b60405180910390f35b620000c16004803603810190620000bb919062000597565b6200011f565b604051620000d09190620003ea565b60405180910390f35b60008181548110620000ea57600080fd5b906000526020600020016000915054906101000a900473ffffffffffffffffffffffffffffffffffffffff1681565b60015481565b600060016000815480929190620001369062000660565b919050555060008484846040516200014e9062000316565b6200015c9392919062000736565b604051809103906000f08015801562000179573d6000803e3d6000fd5b5090508073ffffffffffffffffffffffffffffffffffffffff1663f2fde38b336040518263ffffffff1660e01b8152600401620001b79190620003ea565b600060405180830381600087803b158015620001d257600080fd5b505af1158015620001e7573d6000803e3d6000fd5b505050508073ffffffffffffffffffffffffffffffffffffffff1663a9059cbb33876040518363ffffffff1660e01b81526004016200022892919062000781565b6020604051808303816000875af115801562000248573d6000803e3d6000fd5b505050506040513d601f19601f820116820180604052508101906200026e9190620007eb565b506000819080600181540180825580915050600190039060005260206000200160009091909190916101000a81548173ffffffffffffffffffffffffffffffffffffffff021916908373ffffffffffffffffffffffffffffffffffffffff1602179055507f91d24864a084ab70b268a1f865e757ca12006cf298d763b6be697302ef86498c81604051620003039190620003ea565b60405180910390a1809150509392505050565b61285e806200081e83390190565b6000604051905090565b600080fd5b600080fd5b6000819050919050565b6200034d8162000338565b81146200035957600080fd5b50565b6000813590506200036d8162000342565b92915050565b6000602082840312156200038c576200038b6200032e565b5b60006200039c848285016200035c565b91505092915050565b600073ffffffffffffffffffffffffffffffffffffffff82169050919050565b6000620003d282620003a5565b9050919050565b620003e481620003c5565b82525050565b6000602082019050620004016000830184620003d9565b92915050565b620004128162000338565b82525050565b60006020820190506200042f600083018462000407565b92915050565b600080fd5b600080fd5b6000601f19601f8301169050919050565b7f4e487b7100000000000000000000000000000000000000000000000000000000600052604160045260246000fd5b6200048a826200043f565b810181811067ffffffffffffffff82111715620004ac57620004ab62000450565b5b80604052505050565b6000620004c162000324565b9050620004cf82826200047f565b919050565b600067ffffffffffffffff821115620004f257620004f162000450565b5b620004fd826200043f565b9050602081019050919050565b82818337600083830152505050565b6000620005306200052a84620004d4565b620004b5565b9050828152602081018484840111156200054f576200054e6200043a565b5b6200055c8482856200050a565b509392505050565b600082601f8301126200057c576200057b62000435565b5b81356200058e84826020860162000519565b91505092915050565b600080600060608486031215620005b357620005b26200032e565b5b6000620005c3868287016200035c565b935050602084013567ffffffffffffffff811115620005e757620005e662000333565b5b620005f58682870162000564565b925050604084013567ffffffffffffffff81111562000619576200061862000333565b5b620006278682870162000564565b9150509250925092565b7f4e487b7100000000000000000000000000000000000000000000000000000000600052601160045260246000fd5b60006200066d8262000338565b91507fffffffffffffffffffffffffffffffffffffffffffffffffffffffffffffffff8203620006a257620006a162000631565b5b600182019050919050565b600081519050919050565b600082825260208201905092915050565b60005b83811015620006e9578082015181840152602081019050620006cc565b60008484015250505050565b60006200070282620006ad565b6200070e8185620006b8565b935062000720818560208601620006c9565b6200072b816200043f565b840191505092915050565b60006060820190506200074d600083018662000407565b8181036020830152620007618185620006f5565b90508181036040830152620007778184620006f5565b9050949350505050565b6000604082019050620007986000830185620003d9565b620007a7602083018462000407565b9392505050565b60008115159050919050565b620007c581620007ae565b8114620007d157600080fd5b50565b600081519050620007e581620007ba565b92915050565b6000602082840312156200080457620008036200032e565b5b60006200081484828501620007d4565b9150509291505056fe60806040523480156200001157600080fd5b506040516200285e3803806200285e8339818101604052810190620000379190620004d1565b818181600390816200004a9190620007ac565b5080600490816200005c9190620007ac565b5050506200007f62000073620000be60201b60201c565b620000c660201b60201c565b8160069081620000909190620007ac565b508060079081620000a29190620007ac565b50620000b533846200018c60201b60201c565b505050620009ae565b600033905090565b6000600560009054906101000a900473ffffffffffffffffffffffffffffffffffffffff16905081600560006101000a81548173ffffffffffffffffffffffffffffffffffffffff021916908373ffffffffffffffffffffffffffffffffffffffff1602179055508173ffffffffffffffffffffffffffffffffffffffff168173ffffffffffffffffffffffffffffffffffffffff167f8be0079c531659141344cd1fd0a4f28419497f9722a3daafe3b4186f6b6457e060405160405180910390a35050565b600073ffffffffffffffffffffffffffffffffffffffff168273ffffffffffffffffffffffffffffffffffffffff1603620001fe576040517f08c379a0000000000000000000000000000000000000000000000000000000008152600401620001f590620008f4565b60405180910390fd5b6200021260008383620002f960201b60201c565b806002600082825462000226919062000945565b92505081905550806000808473ffffffffffffffffffffffffffffffffffffffff1673ffffffffffffffffffffffffffffffffffffffff168152602001908152602001600020600082825401925050819055508173ffffffffffffffffffffffffffffffffffffffff16600073ffffffffffffffffffffffffffffffffffffffff167fddf252ad1be2c89b69c2b068fc378daa952ba7f163c4a11628f55a4df523b3ef83604051620002d9919062000991565b60405180910390a3620002f560008383620002fe60201b60201c565b5050565b505050565b505050565b6000604051905090565b600080fd5b600080fd5b6000819050919050565b6200032c8162000317565b81146200033857600080fd5b50565b6000815190506200034c8162000321565b92915050565b600080fd5b600080fd5b6000601f19601f8301169050919050565b7f4e487b7100000000000000000000000000000000000000000000000000000000600052604160045260246000fd5b620003a7826200035c565b810181811067ffffffffffffffff82111715620003c957620003c86200036d565b5b80604052505050565b6000620003de62000303565b9050620003ec82826200039c565b919050565b600067ffffffffffffffff8211156200040f576200040e6200036d565b5b6200041a826200035c565b9050602081019050919050565b60005b83811015620004475780820151818401526020810190506200042a565b60008484015250505050565b60006200046a6200046484620003f1565b620003d2565b90508281526020810184848401111562000489576200048862000357565b5b6200049684828562000427565b509392505050565b600082601f830112620004b657620004b562000352565b5b8151620004c884826020860162000453565b91505092915050565b600080600060608486031215620004ed57620004ec6200030d565b5b6000620004fd868287016200033b565b935050602084015167ffffffffffffffff81111562000521576200052062000312565b5b6200052f868287016200049e565b925050604084015167ffffffffffffffff81111562000553576200055262000312565b5b62000561868287016200049e565b9150509250925092565b600081519050919050565b7f4e487b7100000000000000000000000000000000000000000000000000000000600052602260045260246000fd5b60006002820490506001821680620005be57607f821691505b602082108103620005d457620005d362000576565b5b50919050565b60008190508160005260206000209050919050565b60006020601f8301049050919050565b600082821b905092915050565b6000600883026200063e7fffffffffffffffffffffffffffffffffffffffffffffffffffffffffffffffff82620005ff565b6200064a8683620005ff565b95508019841693508086168417925050509392505050565b6000819050919050565b60006200068d62000687620006818462000317565b62000662565b62000317565b9050919050565b6000819050919050565b620006a9836200066c565b620006c1620006b88262000694565b8484546200060c565b825550505050565b600090565b620006d8620006c9565b620006e58184846200069e565b505050565b5b818110156200070d5762000701600082620006ce565b600181019050620006eb565b5050565b601f8211156200075c576200072681620005da565b6200073184620005ef565b8101602085101562000741578190505b620007596200075085620005ef565b830182620006ea565b50505b505050565b600082821c905092915050565b6000620007816000198460080262000761565b1980831691505092915050565b60006200079c83836200076e565b9150826002028217905092915050565b620007b7826200056b565b67ffffffffffffffff811115620007d357620007d26200036d565b5b620007df8254620005a5565b620007ec82828562000711565b600060209050601f8311600181146200082457600084156200080f578287015190505b6200081b85826200078e565b8655506200088b565b601f1984166200083486620005da565b60005b828110156200085e5784890151825560018201915060208501945060208101905062000837565b868310156200087e57848901516200087a601f8916826200076e565b8355505b6001600288020188555050505b505050505050565b600082825260208201905092915050565b7f45524332303a206d696e7420746f20746865207a65726f206164647265737300600082015250565b6000620008dc601f8362000893565b9150620008e982620008a4565b602082019050919050565b600060208201905081810360008301526200090f81620008cd565b9050919050565b7f4e487b7100000000000000000000000000000000000000000000000000000000600052601160045260246000fd5b6000620009528262000317565b91506200095f8362000317565b92508282019050808211156200097a576200097962000916565b5b92915050565b6200098b8162000317565b82525050565b6000602082019050620009a8600083018462000980565b92915050565b611ea080620009be6000396000f3fe608060405234801561001057600080fd5b50600436106101425760003560e01c806348043f0d116100b85780638da5cb5b1161007c5780638da5cb5b1461035357806395d89b4114610371578063a457c2d71461038f578063a9059cbb146103bf578063dd62ed3e146103ef578063f2fde38b1461041f57610142565b806348043f0d146102c35780635d366307146102df57806370a08231146102fd578063715018a61461032d57806379cc67901461033757610142565b806323b872dd1161010a57806323b872dd146101ef578063313ce5671461021f5780633373bffb1461023d578063395093511461025b57806340c10f191461028b57806342966c68146102a757610142565b806301f6264e1461014757806306fdde0314610165578063095ea7b31461018357806318160ddd146101b3578063188944ac146101d1575b600080fd5b61014f61043b565b60405161015c9190611498565b60405180910390f35b61016d6104cd565b60405161017a9190611498565b60405180910390f35b61019d60048036038101906101989190611553565b61055f565b6040516101aa91906115ae565b60405180910390f35b6101bb610582565b6040516101c891906115d8565b60405180910390f35b6101d961058c565b6040516101e69190611498565b60405180910390f35b610209600480360381019061020491906115f3565b61061e565b60405161021691906115ae565b60405180910390f35b61022761064d565b6040516102349190611662565b60405180910390f35b610245610656565b6040516102529190611498565b60405180910390f35b61027560048036038101906102709190611553565b6106e4565b60405161028291906115ae565b60405180910390f35b6102a560048036038101906102a09190611553565b61071b565b005b6102c160048036038101906102bc919061167d565b610731565b005b6102dd60048036038101906102d8919061167d565b610745565b005b6102e761075a565b6040516102f49190611498565b60405180910390f35b610317600480360381019061031291906116aa565b6107e8565b60405161032491906115d8565b60405180910390f35b610335610830565b005b610351600480360381019061034c9190611553565b610844565b005b61035b610864565b60405161036891906116e6565b60405180910390f35b61037961088e565b6040516103869190611498565b60405180910390f35b6103a960048036038101906103a49190611553565b610920565b6040516103b691906115ae565b60405180910390f35b6103d960048036038101906103d49190611553565b610997565b6040516103e691906115ae565b60405180910390f35b61040960048036038101906104049190611701565b6109ba565b60405161041691906115d8565b60405180910390f35b610439600480360381019061043491906116aa565b610a41565b005b60606006805461044a90611770565b80601f016020809104026020016040519081016040528092919081815260200182805461047690611770565b80156104c35780601f10610498576101008083540402835291602001916104c3565b820191906000526020600020905b8154815290600101906020018083116104a657829003601f168201915b5050505050905090565b6060600380546104dc90611770565b80601f016020809104026020016040519081016040528092919081815260200182805461050890611770565b80156105555780601f1061052a57610100808354040283529160200191610555565b820191906000526020600020905b81548152906001019060200180831161053857829003601f168201915b5050505050905090565b60008061056a610ac4565b9050610577818585610acc565b600191505092915050565b6000600254905090565b60606007805461059b90611770565b80601f01602080910402602001604051908101604052809291908181526020018280546105c790611770565b80156106145780601f106105e957610100808354040283529160200191610614565b820191906000526020600020905b8154815290600101906020018083116105f757829003601f168201915b5050505050905090565b600080610629610ac4565b9050610636858285610c95565b610641858585610d21565b60019150509392505050565b60006002905090565b6007805461066390611770565b80601f016020809104026020016040519081016040528092919081815260200182805461068f90611770565b80156106dc5780601f106106b1576101008083540402835291602001916106dc565b820191906000526020600020905b8154815290600101906020018083116106bf57829003601f168201915b505050505081565b6000806106ef610ac4565b905061071081858561070185896109ba565b61070b91906117d0565b610acc565b600191505092915050565b610723610f97565b61072d8282611015565b5050565b61074261073c610ac4565b8261116b565b50565b61074d610f97565b6107573382611015565b50565b6006805461076790611770565b80601f016020809104026020016040519081016040528092919081815260200182805461079390611770565b80156107e05780601f106107b5576101008083540402835291602001916107e0565b820191906000526020600020905b8154815290600101906020018083116107c357829003601f168201915b505050505081565b60008060008373ffffffffffffffffffffffffffffffffffffffff1673ffffffffffffffffffffffffffffffffffffffff168152602001908152602001600020549050919050565b610838610f97565b6108426000611338565b565b61085682610850610ac4565b83610c95565b610860828261116b565b5050565b6000600560009054906101000a900473ffffffffffffffffffffffffffffffffffffffff16905090565b60606004805461089d90611770565b80601f01602080910402602001604051908101604052809291908181526020018280546108c990611770565b80156109165780601f106108eb57610100808354040283529160200191610916565b820191906000526020600020905b8154815290600101906020018083116108f957829003601f168201915b5050505050905090565b60008061092b610ac4565b9050600061093982866109ba565b90508381101561097e576040517f08c379a000000000000000000000000000000000000000000000000000000000815260040161097590611876565b60405180910390fd5b61098b8286868403610acc565b60019250505092915050565b6000806109a2610ac4565b90506109af818585610d21565b600191505092915050565b6000600160008473ffffffffffffffffffffffffffffffffffffffff1673ffffffffffffffffffffffffffffffffffffffff16815260200190815260200160002060008373ffffffffffffffffffffffffffffffffffffffff1673ffffffffffffffffffffffffffffffffffffffff16815260200190815260200160002054905092915050565b610a49610f97565b600073ffffffffffffffffffffffffffffffffffffffff168173ffffffffffffffffffffffffffffffffffffffff1603610ab8576040517f08c379a0000000000000000000000000000000000000000000000000000000008152600401610aaf90611908565b60405180910390fd5b610ac181611338565b50565b600033905090565b600073ffffffffffffffffffffffffffffffffffffffff168373ffffffffffffffffffffffffffffffffffffffff1603610b3b576040517f08c379a0000000000000000000000000000000000000000000000000000000008152600401610b329061199a565b60405180910390fd5b600073ffffffffffffffffffffffffffffffffffffffff168273ffffffffffffffffffffffffffffffffffffffff1603610baa576040517f08c379a0000000000000000000000000000000000000000000000000000000008152600401610ba190611a2c565b60405180910390fd5b80600160008573ffffffffffffffffffffffffffffffffffffffff1673ffffffffffffffffffffffffffffffffffffffff16815260200190815260200160002060008473ffffffffffffffffffffffffffffffffffffffff1673ffffffffffffffffffffffffffffffffffffffff168152602001908152602001600020819055508173ffffffffffffffffffffffffffffffffffffffff168373ffffffffffffffffffffffffffffffffffffffff167f8c5be1e5ebec7d5bd14f71427d1e84f3dd0314c0f7b2291e5b200ac8c7c3b92583604051610c8891906115d8565b60405180910390a3505050565b6000610ca184846109ba565b90507fffffffffffffffffffffffffffffffffffffffffffffffffffffffffffffffff8114610d1b5781811015610d0d576040517f08c379a0000000000000000000000000000000000000000000000000000000008152600401610d0490611a98565b60405180910390fd5b610d1a8484848403610acc565b5b50505050565b600073ffffffffffffffffffffffffffffffffffffffff168373ffffffffffffffffffffffffffffffffffffffff1603610d90576040517f08c379a0000000000000000000000000000000000000000000000000000000008152600401610d8790611b2a565b60405180910390fd5b600073ffffffffffffffffffffffffffffffffffffffff168273ffffffffffffffffffffffffffffffffffffffff1603610dff576040517f08c379a0000000000000000000000000000000000000000000000000000000008152600401610df690611bbc565b60405180910390fd5b610e0a8383836113fe565b60008060008573ffffffffffffffffffffffffffffffffffffffff1673ffffffffffffffffffffffffffffffffffffffff16815260200190815260200160002054905081811015610e90576040517f08c379a0000000000000000000000000000000000000000000000000000000008152600401610e8790611c4e565b60405180910390fd5b8181036000808673ffffffffffffffffffffffffffffffffffffffff1673ffffffffffffffffffffffffffffffffffffffff16815260200190815260200160002081905550816000808573ffffffffffffffffffffffffffffffffffffffff1673ffffffffffffffffffffffffffffffffffffffff168152602001908152602001600020600082825401925050819055508273ffffffffffffffffffffffffffffffffffffffff168473ffffffffffffffffffffffffffffffffffffffff167fddf252ad1be2c89b69c2b068fc378daa952ba7f163c4a11628f55a4df523b3ef84604051610f7e91906115d8565b60405180910390a3610f91848484611403565b50505050565b610f9f610ac4565b73ffffffffffffffffffffffffffffffffffffffff16610fbd610864565b73ffffffffffffffffffffffffffffffffffffffff1614611013576040517f08c379a000000000000000000000000000000000000000000000000000000000815260040161100a90611cba565b60405180910390fd5b565b600073ffffffffffffffffffffffffffffffffffffffff168273ffffffffffffffffffffffffffffffffffffffff1603611084576040517f08c379a000000000000000000000000000000000000000000000000000000000815260040161107b90611d26565b60405180910390fd5b611090600083836113fe565b80600260008282546110a291906117d0565b92505081905550806000808473ffffffffffffffffffffffffffffffffffffffff1673ffffffffffffffffffffffffffffffffffffffff168152602001908152602001600020600082825401925050819055508173ffffffffffffffffffffffffffffffffffffffff16600073ffffffffffffffffffffffffffffffffffffffff167fddf252ad1be2c89b69c2b068fc378daa952ba7f163c4a11628f55a4df523b3ef8360405161115391906115d8565b60405180910390a361116760008383611403565b5050565b600073ffffffffffffffffffffffffffffffffffffffff168273ffffffffffffffffffffffffffffffffffffffff16036111da576040517f08c379a00000000000000000000000000000000000000000000000000000000081526004016111d190611db8565b60405180910390fd5b6111e6826000836113fe565b60008060008473ffffffffffffffffffffffffffffffffffffffff1673ffffffffffffffffffffffffffffffffffffffff1681526020019081526020016000205490508181101561126c576040517f08c379a000000000000000000000000000000000000000000000000000000000815260040161126390611e4a565b60405180910390fd5b8181036000808573ffffffffffffffffffffffffffffffffffffffff1673ffffffffffffffffffffffffffffffffffffffff1681526020019081526020016000208190555081600260008282540392505081905550600073ffffffffffffffffffffffffffffffffffffffff168373ffffffffffffffffffffffffffffffffffffffff167fddf252ad1be2c89b69c2b068fc378daa952ba7f163c4a11628f55a4df523b3ef8460405161131f91906115d8565b60405180910390a361133383600084611403565b505050565b6000600560009054906101000a900473ffffffffffffffffffffffffffffffffffffffff16905081600560006101000a81548173ffffffffffffffffffffffffffffffffffffffff021916908373ffffffffffffffffffffffffffffffffffffffff1602179055508173ffffffffffffffffffffffffffffffffffffffff168173ffffffffffffffffffffffffffffffffffffffff167f8be0079c531659141344cd1fd0a4f28419497f9722a3daafe3b4186f6b6457e060405160405180910390a35050565b505050565b505050565b600081519050919050565b600082825260208201905092915050565b60005b83811015611442578082015181840152602081019050611427565b60008484015250505050565b6000601f19601f8301169050919050565b600061146a82611408565b6114748185611413565b9350611484818560208601611424565b61148d8161144e565b840191505092915050565b600060208201905081810360008301526114b2818461145f565b905092915050565b600080fd5b600073ffffffffffffffffffffffffffffffffffffffff82169050919050565b60006114ea826114bf565b9050919050565b6114fa816114df565b811461150557600080fd5b50565b600081359050611517816114f1565b92915050565b6000819050919050565b6115308161151d565b811461153b57600080fd5b50565b60008135905061154d81611527565b92915050565b6000806040838503121561156a576115696114ba565b5b600061157885828601611508565b92505060206115898582860161153e565b9150509250929050565b60008115159050919050565b6115a881611593565b82525050565b60006020820190506115c3600083018461159f565b92915050565b6115d28161151d565b82525050565b60006020820190506115ed60008301846115c9565b92915050565b60008060006060848603121561160c5761160b6114ba565b5b600061161a86828701611508565b935050602061162b86828701611508565b925050604061163c8682870161153e565b9150509250925092565b600060ff82169050919050565b61165c81611646565b82525050565b60006020820190506116776000830184611653565b92915050565b600060208284031215611693576116926114ba565b5b60006116a18482850161153e565b91505092915050565b6000602082840312156116c0576116bf6114ba565b5b60006116ce84828501611508565b91505092915050565b6116e0816114df565b82525050565b60006020820190506116fb60008301846116d7565b92915050565b60008060408385031215611718576117176114ba565b5b600061172685828601611508565b925050602061173785828601611508565b9150509250929050565b7f4e487b7100000000000000000000000000000000000000000000000000000000600052602260045260246000fd5b6000600282049050600182168061178857607f821691505b60208210810361179b5761179a611741565b5b50919050565b7f4e487b7100000000000000000000000000000000000000000000000000000000600052601160045260246000fd5b60006117db8261151d565b91506117e68361151d565b92508282019050808211156117fe576117fd6117a1565b5b92915050565b7f45524332303a2064656372656173656420616c6c6f77616e63652062656c6f7760008201527f207a65726f000000000000000000000000000000000000000000000000000000602082015250565b6000611860602583611413565b915061186b82611804565b604082019050919050565b6000602082019050818103600083015261188f81611853565b9050919050565b7f4f776e61626c653a206e6577206f776e657220697320746865207a65726f206160008201527f6464726573730000000000000000000000000000000000000000000000000000602082015250565b60006118f2602683611413565b91506118fd82611896565b604082019050919050565b60006020820190508181036000830152611921816118e5565b9050919050565b7f45524332303a20617070726f76652066726f6d20746865207a65726f2061646460008201527f7265737300000000000000000000000000000000000000000000000000000000602082015250565b6000611984602483611413565b915061198f82611928565b604082019050919050565b600060208201905081810360008301526119b381611977565b9050919050565b7f45524332303a20617070726f766520746f20746865207a65726f20616464726560008201527f7373000000000000000000000000000000000000000000000000000000000000602082015250565b6000611a16602283611413565b9150611a21826119ba565b604082019050919050565b60006020820190508181036000830152611a4581611a09565b9050919050565b7f45524332303a20696e73756666696369656e7420616c6c6f77616e6365000000600082015250565b6000611a82601d83611413565b9150611a8d82611a4c565b602082019050919050565b60006020820190508181036000830152611ab181611a75565b9050919050565b7f45524332303a207472616e736665722066726f6d20746865207a65726f20616460008201527f6472657373000000000000000000000000000000000000000000000000000000602082015250565b6000611b14602583611413565b9150611b1f82611ab8565b604082019050919050565b60006020820190508181036000830152611b4381611b07565b9050919050565b7f45524332303a207472616e7366657220746f20746865207a65726f206164647260008201527f6573730000000000000000000000000000000000000000000000000000000000602082015250565b6000611ba6602383611413565b9150611bb182611b4a565b604082019050919050565b60006020820190508181036000830152611bd581611b99565b9050919050565b7f45524332303a207472616e7366657220616d6f756e742065786365656473206260008201527f616c616e63650000000000000000000000000000000000000000000000000000602082015250565b6000611c38602683611413565b9150611c4382611bdc565b604082019050919050565b60006020820190508181036000830152611c6781611c2b565b9050919050565b7f4f776e61626c653a2063616c6c6572206973206e6f7420746865206f776e6572600082015250565b6000611ca4602083611413565b9150611caf82611c6e565b602082019050919050565b60006020820190508181036000830152611cd381611c97565b9050919050565b7f45524332303a206d696e7420746f20746865207a65726f206164647265737300600082015250565b6000611d10601f83611413565b9150611d1b82611cda565b602082019050919050565b60006020820190508181036000830152611d3f81611d03565b9050919050565b7f45524332303a206275726e2066726f6d20746865207a65726f2061646472657360008201527f7300000000000000000000000000000000000000000000000000000000000000602082015250565b6000611da2602183611413565b9150611dad82611d46565b604082019050919050565b60006020820190508181036000830152611dd181611d95565b9050919050565b7f45524332303a206275726e20616d6f756e7420657863656564732062616c616e60008201527f6365000000000000000000000000000000000000000000000000000000000000602082015250565b6000611e34602283611413565b9150611e3f82611dd8565b604082019050919050565b60006020820190508181036000830152611e6381611e27565b905091905056fea2646970667358221220086cdef79c579f814d58dc91f1c67c174482d90b3e203128bbc469dea38471cd64736f6c63430008110033a264697066735822122023b2a005904cc3531b6c8b4f367e621d8334c4e87adb31b6c538b060f421eb4564736f6c63430008110033",
  "linkReferences": {},
  "deployedLinkReferences": {}
}